:020000040800F2
:10000000002800203D0E0008B50A0008BD0A0008BF
:10001000C50A0008CD0A0008D50A00080000000043
:10002000000000000000000000000000DD0A0008E1
:10003000E90A000800000000F50A0008010B0008AA
:10004000850E0008850E0008850E0008850E000844
:10005000850E0008850E0008850E0008850E000834
:10006000850E0008850E0008850E0008850E000824
:10007000850E0008850E0008850E0008850E000814
:10008000850E0008850E0008850E0008850E000804
:10009000850E0008850E0008850E0008850E0008F4
:1000A000850E0008850E0008850E0008850E0008E4
:1000B0000D0B0008850E000800000000850E0008EA
:1000C000850E00080000000000000000850E0008FA
:1000D00000000000850E0008850E000800000000EA
:1000E000850E0008850E0008850E0008000000003F
:1000F0000000000000000000000000000000000000
:0C01000000000000000000005FF808F1A3
:10010C0010B5054C237833B9044B13B10448AFF345
:10011C0000800123237010BD80000020000000002F
:10012C00D85B000808B5034B1BB103490348AFF378
:10013C00008008BD0000000084000020D85B00088F
:10014C0080F0004002E000BF81F0004142001FBF80
:10015C005FEA410392EA030F7FEA226C7FEA236C89
:10016C006AD04FEA1262D2EB1363C1BFD21841407E
:10017C0048404140B8BF5B42192B88BF704710F014
:10018C00004F40F4000020F07F4018BF404211F0B7
:10019C00004F41F4000121F07F4118BF494292EA1F
:1001AC00030F3FD0A2F1010241FA03FC10EB0C004B
:1001BC00C3F1200301FA03F100F0004302D54942D8
:1001CC0060EB4000B0F5000F13D3B0F1807F06D385
:1001DC0040084FEA310102F10102FE2A51D2B1F17D
:1001EC00004F40EBC25008BF20F0010040EA030072
:1001FC007047490040EB0000013A28BFB0F5000FF2
:10020C00EDD2B0FA80FCACF1080CB2EB0C0200FAA7
:10021C000CF0AABF00EBC25052421843BCBFD040F6
:10022C001843704792F0000F81F4000106BF80F470
:10023C0000000132013BB5E74FEA41037FEA226C33
:10024C0018BF7FEA236C21D092EA030F04D092F0FE
:10025C00000F08BF0846704790EA010F1CBF002032
:10026C00704712F07F4F04D1400028BF40F000408F
:10027C00704712F100723CBF00F50000704700F0AF
:10028C00004343F0FE4040F4000070477FEA2262D6
:10029C0016BF08467FEA23630146420206BF5FEAA7
:1002AC00412390EA010F40F4800070474FF00003A7
:1002BC0004E000BF10F0004348BF40425FEA000C6E
:1002CC0008BF704743F0964301464FF000001CE016
:1002DC0050EA010208BF70474FF000030AE000BF6C
:1002EC0050EA010208BF704711F0004302D54042AA
:1002FC0061EB41015FEA010C02BF8446014600201C
:10030C0043F0B64308BFA3F18053A3F50003BCFA36
:10031C008CF2083AA3EBC25310DB01FA02FC6344E3
:10032C0000FA02FCC2F12002BCF1004F20FA02F2EA
:10033C0043EB020008BF20F00100704702F12002DD
:10034C0001FA02FCC2F1200250EA4C0021FA02F23E
:10035C0043EB020008BF20EADC7070474FF0FF0C43
:10036C001CEAD0521EBF1CEAD15392EA0C0F93EA3E
:10037C000C0F6FD01A4480EA010C400218BF5FEAE0
:10038C0041211ED04FF0006343EA501043EA511153
:10039C00A0FB01310CF00040B1F5000F3EBF49004D
:1003AC0041EAD3715B0040EA010062F17F02FD2A51
:1003BC001DD8B3F1004F40EBC25008BF20F0010034
:1003CC00704790F0000F0CF0004C08BF49024CEA4B
:1003DC00502040EA51207F3AC2BFD2F1FF0340EADD
:1003EC00C250704740F400004FF00003013A5DDC4E
:1003FC0012F1190FDCBF00F000407047C2F100028F
:10040C00410021FA02F1C2F1200200FA02FC5FEA7B
:10041C00310040F1000053EA4C0308BF20EADC70C5
:10042C00704792F0000F00F0004C02BF400010F437
:10043C00000F013AF9D040EA0C0093F0000F01F0E4
:10044C00004C02BF490011F4000F013BF9D041EA06
:10045C000C018FE70CEAD15392EA0C0F18BF93EA08
:10046C000C0F0AD030F0004C18BF31F0004CD8D132
:10047C0080EA010000F00040704790F0000F17BFB9
:10048C0090F0004F084691F0000F91F0004F14D0FF
:10049C0092EA0C0F01D142020FD193EA0C0F03D157
:1004AC004B0218BF084608D180EA010000F000405A
:1004BC0040F0FE4040F40000704740F0FE4040F435
:1004CC00400070474FF0FF0C1CEAD0521EBF1CEAD4
:1004DC00D15392EA0C0F93EA0C0F69D0A2EB0302F2
:1004EC0080EA010C49024FEA402037D04FF080538C
:1004FC0043EA111143EA10130CF000408B4238BF51
:10050C005B0042F17D024FF4000C8B4224BF5B1A5E
:10051C0040EA0C00B3EB510F24BFA3EB510340EAAC
:10052C005C00B3EB910F24BFA3EB910340EA9C005A
:10053C00B3EBD10F24BFA3EBD10340EADC001B01CA
:10054C0018BF5FEA1C1CE0D1FD2A3FF650AF8B426E
:10055C0040EBC25008BF20F0010070470CF0004C7B
:10056C004CEA50207F32C2BFD2F1FF0340EAC250A6
:10057C00704740F400004FF00003013A37E792F067
:10058C00000F00F0004C02BF400010F4000F013AC5
:10059C00F9D040EA0C0093F0000F01F0004C02BFC0
:1005AC00490011F4000F013BF9D041EA0C0195E729
:1005BC000CEAD15392EA0C0F08D142027FF47DAFC2
:1005CC0093EA0C0F7FF470AF084676E793EA0C0FB2
:1005DC0004D14B023FF44CAF08466EE730F0004CB0
:1005EC0018BF31F0004CCAD130F000427FF45CAF40
:1005FC0031F000437FF43CAF5FE700BF4FF0FF3CAE
:10060C0006E000BF4FF0010C02E000BF4FF0010C00
:10061C004DF804CD4FEA40024FEA41037FEA226CC9
:10062C0018BF7FEA236C11D001B052EA530C18BFEB
:10063C0090EA010F58BFB2EB030088BFC81738BF50
:10064C006FEAE17018BF40F0010070477FEA226C3E
:10065C0002D15FEA402C05D17FEA236CE4D15FEA3A
:10066C00412CE1D05DF8040B704700BF844608466E
:10067C006146FFE70FB5FFF7C9FF002848BF10F12F
:10068C00000F0FBD4DF808EDFFF7F4FF0CBF012074
:10069C0000205DF808FB00BF4DF808EDFFF7EAFFFE
:1006AC0034BF012000205DF808FB00BF4DF808EDB9
:1006BC00FFF7E0FF94BF012000205DF808FB00BFAE
:1006CC004DF808EDFFF7D2FF94BF012000205DF834
:1006DC0008FB00BF4DF808EDFFF7C8FF34BF012041
:1006EC0000205DF808FB00BF4FEA4002B2F1FE4F5C
:1006FC000FD34FF09E03B3EB12620DD94FEA0023D8
:10070C0043F0004310F0004F23FA02F018BF4042B0
:10071C0070474FF00000704712F1610F01D1420297
:10072C0005D110F0004008BF6FF0004070474FF04B
:10073C000000704780B584B000AF3B1D00221A60EA
:10074C005A609A60184B194A1A60174B00229A602B
:10075C00154B00221A73144B00221A75124B4FF4CE
:10076C006022DA61104B00225A600F4B01221A6191
:10077C000D4801F0CBFD0346002B01D000F05CF9D5
:10078C0001237B600123BB600723FB603B1D1946E3
:10079C00054802F07FF80346002B01D000F04CF91D
:1007AC0000BF1037BD4680BD9C00002000240140D6
:1007BC0080B588B000AF786007F1100300221A6092
:1007CC005A609A60DA607B681B68144A934221D1A4
:1007DC00134B9B69124A43F400739361104B9B6952
:1007EC0003F40073FB60FB680D4B9B690C4A43F0F0
:1007FC00040393610A4B9B6903F00403BB60BB6861
:10080C0002233B6103237B6107F110031946054862
:10081C0002F090FB00BF2037BD4680BD0024014094
:10082C00001002400008014080B586B000AF07F10F
:10083C00080300221A605A609A60DA602A4B9B699E
:10084C00294A43F004039361274B9B6903F004038B
:10085C007B607B68244B9B69234A43F008039361BC
:10086C00214B9B6903F008033B603B6800224FF46B
:10087C0080711E4802F0F1FC002210211C4802F08D
:10088C00ECFC0122E0211A4802F0E7FC4FF48073E3
:10089C00BB601123FB6000233B6102237B6107F1EA
:1008AC0008031946114802F045FB0823BB600023DE
:1008BC00FB6001233B6107F1080319460C4802F069
:1008CC0039FBF023BB600123FB6000233B61032356
:1008DC007B6107F108031946054802F02BFB00BFAA
:1008EC001837BD4680BD00BF001002400008014013
:1008FC00000C014080B584B000AF01F081FC00F029
:10090C002FF8FFF791FFFFF715FF00F0A9F900F0A2
:10091C0019FA0F4A3B1D07CA03C31A800233120C83
:10092C001A70391D64230A220A4803F057FE00F09E
:10093C001FFB094803F076FA084B1B78DBB2002B3F
:10094C00FAD0064B00221A7000F04AFBF4E700BF05
:10095C00F05B00081C010020D4000020CC0000201B
:10096C0080B594B000AF07F1280328220021184667
:10097C0004F053F907F1140300221A605A609A60CC
:10098C00DA601A613B1D00221A605A609A60DA60C4
:10099C000223BB620123BB631023FB6302237B6432
:1009AC000023BB644FF46013FB6407F12803184663
:1009BC0002F06CFC0346002B01D000F03DF80F2335
:1009CC007B610223BB610023FB614FF480633B62BC
:1009DC0000237B6207F114030221184602F0D8FEB3
:1009EC000346002B01D000F027F802237B604FF464
:1009FC000043FB603B1D184603F058F80346002BE0
:100A0C0001D000F019F800BF5037BD4680BD000082
:100A1C0080B582B000AF78607B681B68B3F1804F03
:100A2C0004D100F0D7FA034B01221A7000BF08372B
:100A3C00BD4680BDCC00002080B400AF72B600BFB4
:100A4C0000BFFDE780B485B000AF154B9B69144A1D
:100A5C0043F001039361124B9B6903F00103BB60EC
:100A6C00BB680F4BDB690E4A43F08053D3610C4BD0
:100A7C00DB6903F080537B607B680A4B5B68FB602F
:100A8C00FB6823F0E063FB60FB6843F00073FB60E2
:100A9C00044AFB68536000BF1437BD4680BC7047E6
:100AAC00001002400000014080B400AF00BFFDE721
:100ABC0080B400AF00BFFDE780B400AF00BFFDE71E
:100ACC0080B400AF00BFFDE780B400AF00BFFDE70E
:100ADC0080B400AF00BFBD4680BC704780B400AF8F
:100AEC0000BFBD4680BC704780B400AF00BFBD46A0
:100AFC0080BC704780B500AF01F0C8FB00BF80BD63
:100B0C0080B500AF024803F0D9F900BF80BD00BF2B
:100B1C00D400002080B586B000AFF860B9607A6070
:100B2C0000237B610AE0AFF300800146BB685A1CCE
:100B3C00BA60CAB21A707B6901337B617A697B68CF
:100B4C009A42F0DB7B6818461837BD4680BD80B5ED
:100B5C0086B000AFF860B9607A6000237B6109E071
:100B6C00BB685A1CBA601B78184601F047FA7B69BF
:100B7C0001337B617A697B689A42F1DB7B681846AA
:100B8C001837BD4680BD80B483B000AF78604FF09D
:100B9C00FF3318460C37BD4680BC704780B483B019
:100BAC0000AF786039603B684FF400525A60002304
:100BBC0018460C37BD4680BC704780B483B000AF7C
:100BCC007860012318460C37BD4680BC704780B452
:100BDC0085B000AFF860B9607A600023184614370E
:100BEC00BD4680BC7047000080B586B000AF786011
:100BFC00144A154BD31A7B617B693B61134B1B6801
:100C0C00002B02D1114B124A1A60104B1A687B68E8
:100C1C0013443A699A4207D204F04EF803460C2268
:100C2C001A604FF0FF3309E0084B1B68FB60074B61
:100C3C001A687B681344054A1360FB68184618371A
:100C4C00BD4680BD0028002000040000D00000201C
:100C5C00C006002080B400AF00BFBD4680BC70470A
:100C6C0080B586B000AF07F1080300221A605A6005
:100C7C009A60DA603B4600221A605A601E4B4FF0B5
:100C8C0080421A601C4B41F6FF025A601A4B00223C
:100C9C009A60194B42F20F72DA60174B00221A61FC
:100CAC00154B00229A61144803F06CF80346002B94
:100CBC0001D0FFF7C1FE4FF48053BB6007F108036E
:100CCC0019460D4803F0EAF90346002B01D0FFF753
:100CDC00B3FE00233B6000237B603B46194606486D
:100CEC0003F0C2FB0346002B01D0FFF7A5FE00BFAB
:100CFC001837BD4680BD00BFD400002080B584B03D
:100D0C0000AF78607B681B68B3F1804F13D10C4B3C
:100D1C00DB690B4A43F00103D361094BDB6903F038
:100D2C000103FB60FB68002200211C2002F0CBF8C1
:100D3C001C2002F0E4F800BF1037BD4680BD00BF98
:100D4C000010024080B500AF114B124A1A60104BD4
:100D5C004FF4E1325A600E4B00229A600C4B002289
:100D6C00DA600B4B00221A61094B0C225A61084BBA
:100D7C0000229A61064B0022DA61054803F0DEFB83
:100D8C000346002B01D0FFF757FE00BF80BD00BF0C
:100D9C001C0100200038014080B588B000AF78609D
:100DAC0007F1100300221A605A609A60DA607B68BF
:100DBC001B681C4A934231D11B4B9B691A4A43F462
:100DCC0080439361184B9B6903F48043FB60FB6881
:100DDC00154B9B69144A43F004039361124B9B69B6
:100DEC0003F00403BB60BB684FF400733B61022348
:100DFC007B610323FB6107F1100319460B4802F0DA
:100E0C0099F84FF480633B6100237B610023BB6145
:100E1C0007F110031946054802F08CF800BF203783
:100E2C00BD4680BD00380140001002400008014062
:100E3C00FFF710FF0B480C490C4A002302E0D45872
:100E4C00C4500433C4188C42F9D3094A094C00230A
:100E5C0001E013600432A242FBD303F033FFFFF72F
:100E6C0049FD70470000002080000020C07400087D
:100E7C0080000020C0060020FEE7000090B58DB079
:100E8C0002AFF860B9607A60FB7001237B620023CB
:100E9C0087F823300AE07A6A13469B0013445B0000
:100EAC007B6297F82330013387F8233097F823209F
:100EBC00FB789A42EFD30023FB614FF00001786876
:100ECC00FFF7EAFB0346002B05D00123FB617B688F
:100EDC0083F000437B607868FFF706FC0346BB6138
:100EEC00B869FFF7E7F9034619467868FFF72CF95C
:100EFC0003461C46786AFFF7DDF90346194620467F
:100F0C00FFF72CFA03464FF07C511846FFF71EF9F9
:100F1C0003461846FFF7E8FB03467B617A697B6A58
:100F2C009A4204DBBB690133BB6100237B61FB6923
:100F3C00002B0AD0FB787A6901920093BB690A4AAC
:100F4C00B968F86803F0F2FD09E0FB787A69019260
:100F5C000093BB69054AB968F86803F0E7FD00BF68
:100F6C002C37BD4690BD00BFFC5B0008085C000838
:100F7C0080B582B002AF00F0F9F8134801F01EFE04
:100F8C0000F064FA00F0EAFE01F09EF800F0BCFB01
:100F9C000346002B14D10D4B01221A7000F012FCE9
:100FAC00002300930A4B00220021002000F050FD8A
:100FBC0000F0D4FB4FF4487001F084F900F028FCE9
:100FCC0000BFBD4680BD00BF9C0000206901002011
:100FDC00145C000880B500AF01F092F800BF80BD32
:100FEC0080B5A2B002AF4FF000037B674FF0000357
:100FFC003B67554BBB67002387F87F3007F17403C1
:10100C00184600F02FFA0346002B09D07B6F4F4A8D
:10101C0013604F4B01221A70012387F87F3009E0CF
:10102C004B4B1B78002B05D0484B1B687B6701236F
:10103C0087F87F3097F87F30002B16D07B6F07F145
:10104C0070021146184600F073FFB86707F14000B4
:10105C000223BA6F1021FFF711FF7A6F07F13000EE
:10106C0002231021FFF70AFF11E000F0A7FE034650
:10107C003B6707F14003374A1021184603F056FD31
:10108C0007F13003334A1021184603F04FFD3A6F35
:10109C0007F1200003231021FFF7F0FE07F15003A6
:1010AC002021184601F082F82B4B1B78002B39D0ED
:1010BC0000F088FB07F140033846284A202103F052
:1010CC0035FD3B460022009200220021002000F05A
:1010DC00BFFC07F130033846214A202103F026FDDE
:1010EC003B460022009200221021002000F0B0FCB0
:1010FC0007F1200338461B4A202103F017FD3B461D
:10110C000022009200222021002000F0A1FC07F117
:10111C0050030022009200223021002000F098FCA5
:10112C0000F01CFB07F1300007F1400207F1500101
:10113C0007F12003009303460B4803F0E5FC00BFC6
:10114C008037BD4680BD00BF0000E0406401002038
:10115C0068010020245C000869010020285C00085C
:10116C00305C0008385C0008405C000880B500AFBB
:10117C0002F04CFC0346074AA2FB03239B0C064AD5
:10118C001360054B1B68002B02D1034B01221A6024
:10119C0000BF80BD83DE1B436C01002080B489B08E
:1011AC0000AF78601A4B5B6801337B61194B1A688E
:1011BC007B6802FB03F33B610023FB61144B9B68D0
:1011CC00BB611BE0124B9B68FB60FA68BB699A42DF
:1011DC0014D0FA68BB699A4206D2BA69FB68D31A72
:1011EC00FA691344FB6107E07A69FB68D21ABB69A0
:1011FC001344FA691344FB61FB68BB61FA693B69F0
:10120C009A42DFD300BF00BF2437BD4680BC704775
:10121C0010E000E06C01002080B584B000AF3B46CC
:10122C0000221A605A609A60DA604FF480733B6057
:10123C0011237B600323FB603B461946034801F0F6
:10124C0079FE00BF1037BD4680BD00BF00080140CD
:10125C0080B582B000AF0346FB71FB791A464FF4A0
:10126C008071034801F0F9FF00BF0837BD4680BD0F
:10127C000008014080B500AF4FF48071024801F0C6
:10128C00D5FF0346184680BD0008014080B582B0EA
:10129C0000AF0023FB710020FFF7DAFF4FF4FA7068
:1012AC00FFF77CFF0120FFF7D3FF4620FFF776FF07
:1012BC00FFF7E0FF0346002B0CBF01230023DBB23A
:1012CC00FB714FF4D770FFF769FFFB7918460837AD
:1012DC00BD4680BD80B582B000AF0346FB710020D7
:1012EC00FFF7B6FFFB79002B09D00320FFF756FF61
:1012FC000120FFF7ADFF3C20FFF750FF08E03C203A
:10130C00FFF74CFF0120FFF7A3FF0320FFF746FF79
:10131C0000BF0837BD4680BD80B582B000AF00234A
:10132C00FB710020FFF794FF0320FFF737FF01202C
:10133C00FFF78EFF0A20FFF731FFFFF79BFF0346F5
:10134C00012B0CBF01230023DBB2FB713220FFF712
:10135C0025FFFB7918460837BD4680BD80B584B0A3
:10136C0000AF0346FB710023FB730CE0FB7903F029
:10137C000103DBB21846FFF7ADFFFB795B08FB718D
:10138C00FB7B0133FB73FB7B072BEFD900BF00BF4B
:10139C001037BD4680BD80B582B000AF0023FB7115
:1013AC000023BB710FE0FFF7B7FF0346002B07D0FC
:1013BC00BB79012202FA03F3DAB2FB791343FB7116
:1013CC00BB790133BB71BB79072BECD9FB79184680
:1013DC000837BD4680BD80B485B000AF78600B4641
:1013EC00FB700023FB730023BB7325E0BB7B7A6887
:1013FC0013441B787B7300233B7317E0FA7B7B7BD6
:10140C005340DBB203F00103FB72FB7B5B08FB7305
:10141C00FB7A002B04D0FB7B83F07303DB43FB7361
:10142C007B7B5B087B733B7B01333B733B7B072BE9
:10143C00E4D9BB7B0133BB73BA7BFB789A42D5D31F
:10144C00FB7B18461437BD4680BC704780B500AF97
:10145C00FFF7E2FE0120FFF7FBFEFFF717FF034645
:10146C00184680BD90B587B000AF78607B68002BC4
:10147C0001D1002371E0FFF709FF0346002B01D1D6
:10148C0000236AE0CC20FFF769FF4420FFF766FFDA
:10149C0040F2EE2000F016FFFFF7F8FE0346002B9B
:1014AC0001D1002359E0CC20FFF758FFBE20FFF7F5
:1014BC0055FF0023FB750CE0FC7DFFF76CFF03462A
:1014CC001A4604F118033B4403F8102CFB7D01333E
:1014DC00FB75FB7D082BEFD93B7A002B19D17B7A5E
:1014EC00002B16D1BB7A002B13D1FB7A002B10D119
:1014FC003B7B002B0DD17B7B002B0AD1BB7B002BC4
:10150C0007D1FB7B002B04D13B7C002B01D10023AA
:10151C0023E007F1080308211846FFF75CFF034698
:10152C001A463B7C9A4201D0002316E07B7A1B02C0
:10153C001AB23B7A1BB21343BB82B7F9143018466C
:10154C00FEF7B8FE03464FF083411846FEF7BAFF8C
:10155C0003461A467B681A60012318461C37BD46A1
:10156C0090BD80B400AF00BFBD4680BC704780B555
:10157C0000AFAE2000F098FB0346002B01D00123F6
:10158C00C0E0D52000F090FB0346002B01D00123D6
:10159C00B8E0802000F088FB0346002B01D001232B
:1015AC00B0E0A82000F080FB0346002B01D0012303
:1015BC00A8E03F2000F078FB0346002B01D001236C
:1015CC00A0E0D32000F070FB0346002B01D00123D8
:1015DC0098E0002000F068FB0346002B01D00123AB
:1015EC0090E0402000F060FB0346002B01D001236B
:1015FC0088E08D2000F058FB0346002B01D001231E
:10160C0080E0142000F050FB0346002B01D0012396
:10161C0078E0202000F048FB0346002B01D001238A
:10162C0070E0022000F040FB0346002B01D00123A8
:10163C0068E0A12000F038FB0346002B01D0012309
:10164C0060E0C82000F030FB0346002B01D00123E2
:10165C0058E0DA2000F028FB0346002B01D00123D0
:10166C0050E0122000F020FB0346002B01D0012398
:10167C0048E0812000F018FB0346002B01D0012329
:10168C0040E0CF2000F010FB0346002B01D00123DB
:10169C0038E0D92000F008FB0346002B01D00123D1
:1016AC0030E0F12000F000FB0346002B01D00123B9
:1016BC0028E0DB2000F0F8FA0346002B01D00123D0
:1016CC0020E0302000F0F0FA0346002B01D001237B
:1016DC0018E0A42000F0E8FA0346002B01D0012307
:1016EC0010E0A62000F0E0FA0346002B01D0012305
:1016FC0008E0AF2000F0D8FA0346002B01D00123FC
:10170C0000E00023184680BD80B500AFFFF729FF2D
:10171C0000F0B2FA00F00CF8FFF729FF0346002B9B
:10172C0001D0012302E000F073F80023184680BDBD
:10173C0080B500AF00222021074801F08EFD642007
:10174C0000F0C0FD01222021034801F086FD642039
:10175C0000F0B8FD00BF80BD000C014080B582B028
:10176C0000AF0023BB7122E0BB79503BDBB21846C3
:10177C0000F09AFA002000F097FA102000F094FA8A
:10178C000023FB710CE0BA79FB790D49D2010A44B4
:10179C0013441B78184600F0B4FAFB790133FB7143
:1017AC0097F90730002BEEDABB790133BB71BB79AB
:1017BC00072BD9D900BF00BF0837BD4680BD00BF7D
:1017CC007001002080B483B000AF0023BB7114E023
:1017DC000023FB710AE0BA79FB790C49D2010A4467
:1017EC00134400221A70FB790133FB7197F907300F
:1017FC00002BF0DABB790133BB71BB79072BE7D92E
:10180C0000BF00BF0C37BD4680BC70477001002084
:10181C0080B500AFFFF7D6FFFFF7A0FF00BF80BD7C
:10182C0080B485B000AF0346FB710B46BB71134609
:10183C007B7197F90730002B02DBBB793F2B01D969
:10184C0002233DE0BB79DB08FB73BB7903F0070394
:10185C00012202FA03F3BB737B79002B02D0012B1C
:10186C0013D02AE0FA7BFB791849D2010A441344BD
:10187C001878FA7BFB79B97B0143C8B21349D201C2
:10188C000A44134402461A7019E0FA7BFB790F499B
:10189C00D2010A4413441B785AB297F90E30DB4339
:1018AC005BB2134059B2FA7BFB79C8B20749D2013B
:1018BC000A44134402461A7001E0022300E000239C
:1018CC0018461437BD4680BC704700BF700100201D
:1018DC0090B589B000AF0446084611461A46234617
:1018EC00FB710346BB710B467B7113463B710023A6
:1018FC007B7400233B743B791F2B02D93B797E2BE5
:10190C0001D902239AE097F83030002B02D0012B3A
:10191C0003D005E00123FB7704E00023FB7701E013
:10192C0002238BE03B79203BFB737B79022B21D08C
:10193C00022B2EDC002B02D0012B0FD029E0FA7BDE
:10194C0013465B0013449B003E4A1344BB610623C1
:10195C00FB750C23BB750C237B751CE0FB7B1B01FF
:10196C00394A1344BB610823FB751023BB75102344
:10197C007B7510E0FA7B1346DB0013449B00334A63
:10198C001344BB610C23FB751823BB7524237B7597
:10199C0001E0022352E0FA79FB7D1344802B04D83A
:1019AC00BA79BB7D1344402B01D9022346E00023B6
:1019BC00FB743EE0FB7CBA6913441B783B75002337
:1019CC00BB7430E097F91430002B0CDBFA797B7C7C
:1019DC001344D8B2BA793B7C1344DBB2FA7F194674
:1019EC00FFF71EFF0CE0FA797B7C1344D8B2BA796E
:1019FC003B7C1344DBB297F830201946FFF710FFFD
:101A0C003B7D5B003B753B7C01333B743A7CBB7D7F
:101A1C009A4205D100233B747B7C01337B7405E037
:101A2C00BB7C0133BB74BB7C072BCBD9FB7C013358
:101A3C00FB74FA7C7B7D9A42BCD300231846243776
:101A4C00BD4690BD905C000804610008F466000877
:101A5C0090B587B002AF3B600346FB710B46BB7180
:101A6C0013467B717B79022B10D0022B13DC002BDD
:101A7C0002D0012B05D00EE00623FB730C23BB73A5
:101A8C000BE00823FB731023BB7306E00C23FB73E2
:101A9C001823BB7301E0022336E02CE0FA79FB7BC0
:101AAC0013447F2B05D90023FB71BA79BB7B1344FC
:101ABC00BB71BA79BB7B13443F2B03D90023FB7159
:101ACC000023BB713B681C787A79B979F87997F85F
:101ADC00203000932346FFF7FBFE03467B737B7B92
:101AEC00002B01D07B7B0FE0FA79FB7B1344FB715D
:101AFC003B6801333B603B681B781F2B03D93B6869
:101B0C001B787E2BCAD9002318461437BD4690BDCE
:101B1C0080B500AF0220FFF741FB00BF80BD000085
:101B2C0080B500AF012280210C4801F096FB012208
:101B3C0040210A4801F091FBFFF7EAFF00228021C7
:101B4C00064801F08AFBFFF7E3FF0022402103481F
:101B5C0001F083FBFFF7DCFF00BF80BD000C0140F0
:101B6C0080B500AF002280210A4801F076FBFFF718
:101B7C00CFFF01224021074801F06FFBFFF7C8FFA0
:101B8C0001228021034801F068FBFFF7C1FF00BF71
:101B9C0080BD00BF000C014080B582B000AF0023B7
:101BAC00FB710023BB7101228021154801F055FB0C
:101BBC00FFF7AEFF01224021114801F04EFBFFF769
:101BCC00A7FF0AE0FB790133FB71FB79FA2B04D9EF
:101BDC00FFF7C6FF0123BB7106E00821084801F09E
:101BEC0025FB0346002BEDD100224021044801F0D7
:101BFC0034FBFFF78DFFBB7918460837BD4680BD17
:101C0C00000C014080B584B000AF0346FB7100238B
:101C1C00FB7322E097F90730002B05DA01228021B3
:101C2C00144801F01AFB04E000228021114801F055
:101C3C0014FBFFF76DFF012240210E4801F00DFB54
:101C4C00FFF766FF002240210A4801F006FBFB79F2
:101C5C005B00FB71FB7B0133FB73FB7B072BD9D93F
:101C6C0001228021034801F0F8FA00BF1037BD466D
:101C7C0080BD00BF000C014080B500AF00221021D8
:101C8C00084801F0EAFA01228021064801F0E5FA41
:101C9C0001224021034801F0E0FAFFF761FF00BF89
:101CAC0080BD00BF000C014080B582B000AF034680
:101CBC00FB71FFF735FF7820FFF7A4FFFFF76CFFF0
:101CCC000346002B01D0012317E00020FFF79AFFF9
:101CDC00FFF762FF0346002B01D001230DE0FB79D7
:101CEC001846FFF78FFFFFF757FF0346002B01D075
:101CFC00012302E0FFF734FF002318460837BD46E6
:101D0C0080BD80B582B000AF0346FB71FFF708FFC2
:101D1C007820FFF777FFFFF73FFF0346002B01D03A
:101D2C00012317E04020FFF76DFFFFF735FF034657
:101D3C00002B01D001230DE0FB791846FFF762FF61
:101D4C00FFF72AFF0346002B01D0012302E0FFF727
:101D5C0007FF002318460837BD4680BD80B400AF8E
:101D6C0000BFBD4680BC704780B582B000AF104844
:101D7C0000F0A4FB14210E4800F07AFC0C4800F093
:101D8C007DFD78600A4800F047FC7868FEF78EFA13
:101D9C00034608491846FEF7E1FA03460649184679
:101DAC00FEF790FB034618460837BD4680BD00BFC2
:101DBC009C0000203333534000F07F45F0B589B0D0
:101DCC0000AF6B461E4610237B747B7C013BFB6093
:101DDC007B7C00221C4615464FF000024FF000039E
:101DEC006B0143EAD46362017B7C002218461146E6
:101DFC004FF000024FF000034B0143EAD063420165
:101E0C007B7C9B000733DB08DB00ADEB030D6B46E3
:101E1C0003339B089B00BB604FF00003FB613F4BFF
:101E2C00BB613F4B7B610023FB740CE0FC7CFFF738
:101E3C009BFF0246BB6843F82420022000F042FAC4
:101E4C00FB7C0133FB74FA7C7B7C9A42EED300233F
:101E5C00BB742CE0BA7CBB6853F822301946F86985
:101E6C00FEF774F90346FB61BA7CBB6853F8223069
:101E7C001946B869FEF710FC0346002B04D0BA7C57
:101E8C00BB6853F82230BB61BA7CBB6853F8223074
:101E9C0019467869FEF71EFC0346002B04D0BA7C69
:101EAC00BB6853F822307B61BB7C0133BB74BA7CBA
:101EBC007B7C9A42CED3B969F869FEF745F90346A3
:101ECC0079691846FEF740F903461C467B7C023BB9
:101EDC001846FEF7EFF9034619462046FEF7F2FACC
:101EEC0003467B600F4B1B680F491846FEF736FA0A
:101EFC0003461C460D497868FEF730FA034619462E
:101F0C002046FEF723F903461A46064B1A60054B8A
:101F1C001B68B54618462437BD46F0BD00007AC490
:101F2C0000007A44100000203333333F9A99993ED5
:101F3C0090B587B000AF78603960FFF73FFF38612C
:101F4C003B68002B02D03B683A691A60254B9B68B2
:101F5C00244A126811461846FEF7F6F8034619464D
:101F6C002148FEF7AFFA0346FB602049F868FEF7FC
:101F7C00F5F903461C461E497868FEF7E7F8034658
:101F8C0019462046FEF79EFA0346BB60154B5B686C
:101F9C0019463869FEF7D8F80346B9681846FEF7B3
:101FAC00DDF9034613491846FEF7D0F803467B616A
:101FBC004FF000017869FEF76FFB0346002B02D04F
:101FCC004FF000037B610C497869FEF783FB0346F5
:101FDC00002B01D0084B7B617B6918461C37BD4632
:101FEC0090BD00BF0400002090C2A54000009543A6
:101FFC00008088431F85DB400000604180B584B0C1
:10200C0000AF78607B68DBB2FB7307F10F010A232A
:10201C000122044802F0E2FA7B6818461037BD46EC
:10202C0080BD00BF1C01002080B483B000AF03460C
:10203C00FB80FB8803F003039BB2002B0BD1FB88C6
:10204C00104AA2FB03125209642101FB02F29B1AF3
:10205C009BB2002B0CD1FB880A4AA2FB0312D209BB
:10206C004FF4C87101FB02F29B1A9BB2002B01D1F9
:10207C00012300E00023DBB218460C37BD4680BCC0
:10208C00704700BF1F85EB5190B583B000AF03467E
:10209C000A46FB8013467B717B79022B09D1094BD5
:1020AC005C78FB881846FFF7BFFF03462344DBB27E
:1020BC0003E07B79013B034AD35C18460C37BD46E1
:1020CC0090BD00BF5074000880B400AF0B4B40F2C1
:1020DC00EA721A80094B04229A70084B1122DA70AA
:1020EC00064B14221A71054B1E225A71034B002207
:1020FC009A7100BFBD4680BC704700BF1400002021
:10210C0098B500AF284B9B790133DAB2264B9A7104
:10211C00254B9B793B2B45D9234B00229A71224BA3
:10212C005B790133DAB2204B5A711F4B5B793B2B35
:10213C0038D91D4B00225A711B4B1B790133DAB273
:10214C00194B1A71184B1B79172B2BD9164B0022D4
:10215C001A71154BDB780133DAB2134BDA70124B70
:10216C00DC78114B1B88104A927811461846FFF701
:10217C008BFF03469C4215D90B4B0122DA700A4B9C
:10218C009B780133DAB2084B9A70074B9B780C2B77
:10219C0008D9054B01229A70034B1B8801339AB264
:1021AC00014B1A8000BF98BD14000020B0B588B058
:1021BC0006AF78603960104B1B881D460E4B9B7820
:1021CC001A460D4BDB7819460B4B1B7918460A4BFC
:1021DC005B791C46084B9B79049303940290019104
:1021EC0000922B46054A3968786802F09FFC00BFC4
:1021FC000837BD46B0BD00BF14000020585C000875
:10220C0080B500AF084B1B68074A43F010031360FE
:10221C00032000F04DFE0F2000F008F8FEF712FC32
:10222C000023184680BD00BF0020024080B582B05C
:10223C0000AF7860124B1A68124B1B7819464FF49A
:10224C007A73B3FBF1F3B2FBF3F3184600F065FEBF
:10225C000346002B01D001230EE07B680F2B0AD81C
:10226C00002279684FF0FF3000F02DFE064A7B68A3
:10227C001360002300E0012318460837BD4680BDDB
:10228C0000000020200000201C00002080B400AFC3
:10229C00054B1B781A46054B1B681344034A136005
:1022AC0000BFBD4680BC7047200000207005002098
:1022BC0080B400AF024B1B681846BD4680BC70470B
:1022CC007005002080B584B000AF7860FFF7F0FF98
:1022DC00B8607B68FB60FB68B3F1FF3F05D00A4B2D
:1022EC001B781A46FB681344FB6000BFFFF7E0FF46
:1022FC000246BB68D31AFA689A42F7D800BF00BFEF
:10230C001037BD4680BD00BF2000002080B586B0D0
:10231C0000AF78600023FB7500233B610023BB609A
:10232C000023FB607B68002B01D10123BEE07B689E
:10233C009B68002B7B689B6A002B09D17B68002271
:10234C00DA627B68002283F824207868FEF730FA82
:10235C00786800F0F1FB0346FB757B689B6A03F021
:10236C001003002B40F09980FB7D002B40F09580F2
:10237C007B689B6A23F4885323F0020343F0020228
:10238C007B689A627B685A687B68DB691A437B6856
:10239C001B7B5B001343BA681343BB607B689B6871
:1023AC00B3F5807F03D07B689B68012B02D14FF47F
:1023BC00807300E000233A6913433B617B681B7D0B
:1023CC00012B19D17B681B7B002B09D17B689B6986
:1023DC00013B5A033B69134343F400633B610BE03D
:1023EC007B689B6A43F020027B689A627B68DB6A9D
:1023FC0043F001027B68DA627B681B685B6823F43C
:10240C0069417B681B683A690A435A607B681B68A0
:10241C009A68284B13407A681268B9680B4393602A
:10242C007B689B68B3F5807F03D07B689B68012B2E
:10243C0004D17B681B69013B1B05FB607B681B6837
:10244C00DB6A23F470017B681B68FA680A43DA6262
:10245C007B681B689A68184B1340BA689A420BD178
:10246C007B680022DA627B689B6A23F0030343F0EB
:10247C0001027B689A6218E07B689B6A23F0120366
:10248C0043F010027B689A627B68DB6A43F00102BE
:10249C007B68DA620123FB7507E07B689B6A43F07B
:1024AC0010027B689A620123FB75FB7D1846183776
:1024BC00BD4680BDFDF7E1FFFE0E1FFF80B584B069
:1024CC0000AF78600023FB737B6893F82430012BFA
:1024DC0001D1022398E07B68012283F824207868DC
:1024EC0000F0D0FA0346FB73FB7B002B40F0878097
:1024FC007B689B6A23F4407323F0010343F48072DE
:10250C007B689A627B681B68414A934205D1414BB8
:10251C005B6803F47023002B15D17B689B6A23F452
:10252C0080127B689A627B681B685B6803F480632B
:10253C00002B26D07B689B6A23F4405343F48052D3
:10254C007B689A621DE07B689B6A43F480127B680F
:10255C009A627B681B682F4A934204D07B681B6885
:10256C002B4A93420DD12B4B5B6803F48063002BF9
:10257C0007D07B689B6A23F4405343F480527B68FA
:10258C009A627B689B6A03F48053002B06D07B68AD
:10259C00DB6A23F006027B68DA6202E07B680022C9
:1025AC00DA627B68002283F824207B681B686FF05A
:1025BC0002021A607B681B689B6803F46023B3F506
:1025CC00602F13D17B681B68114A934205D1114BC4
:1025DC005B6803F47023002B08D17B681B689A6836
:1025EC007B681B6842F4A0029A600CE07B681B6855
:1025FC009A687B681B6842F480129A6003E07B68DF
:10260C00002283F82420FB7B18461037BD4680BD82
:10261C00002801400024014080B584B000AF7860F0
:10262C000023FB737B6893F82430012B01D1022328
:10263C001AE07B68012283F82420786800F07CFA89
:10264C000346FB73FB7B002B09D17B689B6A23F44D
:10265C00885323F0010343F001027B689A627B6884
:10266C00002283F82420FB7B18461037BD4680BD22
:10267C0090B587B000AF7860396000237B61002390
:10268C00FB6000233B61FFF713FE78617B681B68DE
:10269C009B6803F48073002B0BD07B689B6A43F020
:1026AC0020027B689A627B68002283F82420012335
:1026BC00D3E07B681B685B6803F48073002B31D11B
:1026CC007B681B68DB6A03F47003002B2AD121E0C2
:1026DC003B68B3F1FF3F1DD03B68002B07D0FFF7E1
:1026EC00E7FD02467B69D31A3A689A4212D27B689C
:1026FC001B681B6803F00203002B0BD17B689B6AE1
:10270C0043F004027B689A627B68002283F82420E1
:10271C000323A2E07B681B681B6803F00203002BF9
:10272C00D6D070E04F4B1C68022001F075FA0346BE
:10273C00B4FBF3F27B681B6819694B4B0B40002B05
:10274C0018D17B681B68D968484B0B40002B11D102
:10275C007B681B681969464B0B40002B08D17B68C2
:10276C001B68D968434B0B40002B01D1142320E08C
:10277C0029231EE07B681B6819693D4B0B40002B1D
:10278C0006D17B681B68D9683A4B0B40002B0DD0E7
:10279C007B681B681969384B0B40002B08D17B6890
:1027AC001B68D968344B0B40002B01D1542300E03B
:1027BC00FC2302FB03F33B6121E03B68B3F1FF3FD9
:1027CC001AD03B68002B07D0FFF772FD02467B69DD
:1027DC00D31A3A689A420FD2FB683A699A420BD9DB
:1027EC007B689B6A43F004027B689A627B680022D8
:1027FC0083F82420032330E0FB680133FB60FB6883
:10280C003A699A42D9D87B681B686FF012021A6039
:10281C007B689B6A43F400727B689A627B681B68D6
:10282C009B6803F46023B3F5602F15D17B681B7B89
:10283C00002B11D17B689B6A23F480727B689A62AF
:10284C007B689B6A03F48053002B05D17B689B6AE1
:10285C0043F001027B689A62002318461C37BD4680
:10286C0090BD00BF0000002024499224244992000E
:10287C0092244912922449004992240080B483B0D6
:10288C0000AF78607B681B68DB6C18460C37BD4664
:10289C0080BC704780B485B000AF7860396000238D
:1028AC00FB730023BB607B6893F82430012B01D1B0
:1028BC000223DCE07B68012283F824203B685B6800
:1028CC00062B1CD87B681B68596B3B685A681346EF
:1028DC009B001344053B1F2202FA03F3DB43194010
:1028EC003B6818683B685A6813469B001344053BC9
:1028FC0000FA03F27B681B680A435A633CE03B68AE
:10290C005B680C2B1CD87B681B68196B3B685A687E
:10291C0013469B001344233B1F2202FA03F3DB43B1
:10292C0019403B6818683B685A6813469B0013446F
:10293C00233B00FA03F27B681B680A431A631BE013
:10294C007B681B68D96A3B685A6813469B00134422
:10295C00413B1F2202FA03F3DB4319403B68186822
:10296C003B685A6813469B001344413B00FA03F240
:10297C007B681B680A43DA623B681B68092B1CD90D
:10298C007B681B68D9683B681A6813465B00134464
:10299C001E3B072202FA03F3DB4319403B6898689D
:1029AC003B681A6813465B0013441E3B00FA03F2A3
:1029BC007B681B680A43DA6019E07B681B6819693D
:1029CC003B681A6813465B001344072202FA03F3B0
:1029DC00DB4319403B6898683B681A6813465B00F8
:1029EC00134400FA03F27B681B680A431A613B68C4
:1029FC001B68102B03D03B681B68112B32D17B68F2
:102A0C001B681D4A934225D17B681B689B6803F4A5
:102A1C000003002B26D17B681B689A687B681B68B7
:102A2C0042F400029A603B681B68102B1AD1134BBE
:102A3C001B68134AA2FB03239A0C13469B001344F6
:102A4C005B00BB6002E0BB68013BBB60BB68002B5A
:102A5C00F9D107E07B689B6A43F020027B689A629D
:102A6C000123FB737B68002283F82420FB7B184630
:102A7C001437BD4680BC7047002401400000002084
:102A8C0083DE1B4380B584B000AF78600023FB600D
:102A9C000023BB607B681B689B6803F00103012B60
:102AAC0040D07B681B689A687B681B6842F0010207
:102ABC009A601F4B1B681F4AA2FB03239B0CBB6035
:102ACC0002E0BB68013BBB60BB68002BF9D1FFF790
:102ADC00EFFBF8601FE0FFF7EBFB0246FB68D31A35
:102AEC00022B18D97B681B689B6803F00103012B30
:102AFC0011D07B689B6A43F010027B689A627B68FA
:102B0C00DB6A43F001027B68DA627B68002283F89F
:102B1C002420012307E07B681B689B6803F00103FA
:102B2C00012BD8D1002318461037BD4680BD00BFFD
:102B3C000000002083DE1B4380B584B000AF7860BA
:102B4C000023FB607B681B689B6803F00103012B6F
:102B5C002ED17B681B689A687B681B6822F0010287
:102B6C009A60FFF7A5FBF8601BE0FFF7A1FB02469C
:102B7C00FB68D31A022B14D97B681B689B6803F083
:102B8C000103012B0DD17B689B6A43F010027B681B
:102B9C009A627B68DB6A43F001027B68DA6201238C
:102BAC0007E07B681B689B6803F00103012BDCD0FA
:102BBC00002318461037BD4680BD000090B587B085
:102BCC0000AF78600023FB750023FB607B6893F8F3
:102BDC002430012B01D1022397E07B68012283F87A
:102BEC0024207868FFF7A8FF0346FB757868FFF789
:102BFC0049FF0346FB75FB7D002B40F081807B6811
:102C0C009B6A23F4885323F0020343F002027B688F
:102C1C009A62404B1C68022000F0FEFF0346B4FB96
:102C2C00F3F35B00FB6002E0FB68013BFB60FB68BD
:102C3C00002BF9D17B681B689A687B681B6842F093
:102C4C0008029A60FFF734FB38611BE0FFF730FB9A
:102C5C0002463B69D31A0A2B14D97B681B689B6804
:102C6C0003F00803002B0DD07B689B6A23F0120342
:102C7C0043F010027B689A627B68002283F8242060
:102C8C00012342E07B681B689B6803F00803002B60
:102C9C00DCD17B681B689A687B681B6842F0040275
:102CAC009A60FFF705FB38611BE0FFF701FB02465A
:102CBC003B69D31A0A2B14D97B681B689B6803F0F9
:102CCC000403002B0DD07B689B6A23F0120343F0A6
:102CDC0010027B689A627B68002283F8242001230F
:102CEC0013E07B681B689B6803F00403002BDCD1AA
:102CFC007B689B6A23F0030343F001027B689A62B2
:102D0C007B68002283F82420FB7D18461C37BD46C7
:102D1C0090BD00BF0000002080B485B000AF78608B
:102D2C007B6803F00703FB600C4BDB68BB60BA6885
:102D3C004FF6FF031340BB60FB681A02BB681343DA
:102D4C0043F0BF6343F40033BB60044ABB68D360F9
:102D5C0000BF1437BD4680BC704700BF00ED00E0DB
:102D6C0080B400AF044BDB681B0A03F00703184662
:102D7C00BD4680BC704700BF00ED00E080B483B05E
:102D8C0000AF0346FB7197F90730002B0BDBFB7987
:102D9C0003F01F02064997F907305B09012000FA7E
:102DAC0002F241F8232000BF0C37BD4680BC7047AF
:102DBC0000E100E080B483B000AF03463960FB71E2
:102DCC0097F90730002B0ADB3B68DAB20C4997F90C
:102DDC0007301201D2B20B4483F800230AE03B689F
:102DEC00DAB20849FB7903F00F03043B1201D2B2AB
:102DFC000B441A7600BF0C37BD4680BC704700BF31
:102E0C0000E100E000ED00E080B489B000AFF860B4
:102E1C00B9607A60FB6803F00703FB61FB69C3F1DF
:102E2C000703042B28BF0423BB61FB690433062B67
:102E3C0002D9FB69033B00E000237B614FF0FF32BA
:102E4C00BB6902FA03F3DA43BB681A407B699A4008
:102E5C004FF0FF317B6901FA03F3D9437B680B40D8
:102E6C00134318462437BD4680BC704780B582B0EA
:102E7C0000AF78607B68013BB3F1807F01D3012305
:102E8C000FE00A4A7B68013B53600F214FF0FF3083
:102E9C00FFF790FF054B00229A60044B07221A6043
:102EAC00002318460837BD4680BD00BF10E000E087
:102EBC0080B582B000AF78607868FFF72DFF00BF57
:102ECC000837BD4680BD80B586B000AF0346B960FB
:102EDC007A60FB7300237B61FFF742FF78617A68AD
:102EEC00B9687869FFF790FF024697F90F301146E1
:102EFC001846FFF75FFF00BF1837BD4680BD80B591
:102F0C0082B000AF0346FB7197F907301846FFF704
:102F1C0035FF00BF0837BD4680BD80B582B000AF1D
:102F2C0078607868FFF7A2FF034618460837BD465D
:102F3C0080BD000080B48BB000AF78603960002396
:102F4C007B6200233B6261E101227B6A02FA03F39C
:102F5C00FB613B681B68FA691340BB61BA69FB698A
:102F6C009A4240F050813B685B68974A93425ED02E
:102F7C00954A934275D8954A934258D0934A9342B6
:102F8C006FD8934A934252D0914A934269D8914A4E
:102F9C0093424CD08F4A934263D88F4A934246D087
:102FAC008D4A93425DD8122B2AD8122B59D801A2E4
:102FBC0052F823F03B300008153000082730000889
:102FCC00693000086F3000086F3000086F3000085F
:102FDC006F3000086F3000086F3000086F30000849
:102FEC006F3000086F3000086F3000086F30000839
:102FFC006F3000086F3000081D30000831300008B9
:10300C00764A934213D02CE03B68DB683B6229E0A4
:10301C003B68DB6804333B6224E03B68DB680833C5
:10302C003B621FE03B68DB680C333B621AE03B6899
:10303C009B68002B02D104233B6213E03B689B6826
:10304C00012B05D108233B627B68FA691A6109E000
:10305C0008233B627B68FA695A6103E000233B62F8
:10306C0000E000BFBB69FF2B01D87B6801E07B68E7
:10307C0004337B61BB69FF2B02D87B6A9B0002E0A7
:10308C007B6A083B9B003B617B691A680F213B699B
:10309C0001FA03F3DB431A40396A3B6901FA03F383
:1030AC001A437B691A603B685B6803F08053002B02
:1030BC0000F0A9804A4B9B69494A43F00103936194
:1030CC00474B9B6903F00103BB60BB68454A7B6AB5
:1030DC009B08023352F82330FB607B6A03F0030336
:1030EC009B000F2202FA03F3DB43FA681340FB60E8
:1030FC007B683D4A93420DD07B683C4A934207D093
:10310C007B683B4A934201D1022304E0032302E093
:10311C00012300E000237A6A02F00302920093403C
:10312C00FA681343FB602F497B6A9B080233FA68E9
:10313C0041F823203B685B6803F48013002B06D016
:10314C002C4B9A682B49BB6913438B6006E0294BC7
:10315C009A68BB69DB43274913408B603B685B680B
:10316C0003F40013002B06D0224BDA682149BB690B
:10317C001343CB6006E01F4BDA68BB69DB431D4988
:10318C001340CB603B685B6803F40033002B06D024
:10319C00184B5A681749BB6913434B6006E0154B33
:1031AC005A68BB69DB43134913404B603B685B684F
:1031BC0003F48033002B1FD00E4B1A680D49BB69EA
:1031CC0013430B601FE000BF0000321000003110F1
:1031DC00000022100000211000001210000011103D
:1031EC00001002400000014000080140000C0140AA
:1031FC0000100140000401400B4B1A68BB69DB4313
:10320C00094913400B607B6A01337B623B681A6887
:10321C007B6A22FA03F3002B7FF496AE00BF00BF4B
:10322C002C37BD4680BC70470004014080B485B08B
:10323C0000AF78600B467B807B689A687B88134074
:10324C00002B02D00123FB7301E00023FB73FB7BFB
:10325C0018461437BD4680BC704780B483B000AFAD
:10326C0078600B467B8013467B707B78002B03D0F9
:10327C007A887B681A6103E07B881A047B681A6180
:10328C0000BF0C37BD4680BC7047000080B586B0CF
:10329C0000AF78607B68002B01D1012372E27B6860
:1032AC001B6803F00103002B00F08780924B5B68D6
:1032BC0003F00C03042B0CD08F4B5B6803F00C0356
:1032CC00082B12D18C4B5B6803F48033B3F5803F31
:1032DC000BD1894B1B6803F40033002B6CD07B683B
:1032EC005B68002B68D101234CE27B685B68B3F50B
:1032FC00803F06D1804B1B687F4A43F480331360B8
:10330C002EE07B685B68002B0CD17B4B1B687A4AE8
:10331C0023F480331360784B1B68774A23F48023A3
:10332C0013601DE07B685B68B3F5A02F0CD1724B6A
:10333C001B68714A43F4802313606F4B1B686E4A01
:10334C0043F4803313600BE06B4B1B686A4A23F425
:10335C0080331360684B1B68674A23F48023136027
:10336C007B685B68002B13D0FEF7A2FF386108E086
:10337C00FEF79EFF02463B69D31A642B01D9032347
:10338C0000E25D4B1B6803F40033002BF0D014E01B
:10339C00FEF78EFF386108E0FEF78AFF02463B69B4
:1033AC00D31A642B01D90323ECE1534B1B6803F4B0
:1033BC000033002BF0D100E000BF7B681B6803F0EA
:1033CC000203002B63D04C4B5B6803F00C03002B07
:1033DC000BD0494B5B6803F00C03082B1CD1464BFC
:1033EC005B6803F48033002B16D1434B1B6803F04E
:1033FC000203002B05D07B681B69012B01D0012334
:10340C00C0E13D4B1B6823F0F8027B685B69DB0075
:10341C00394913430B603AE07B681B69002B20D0C1
:10342C00364B01221A60FEF743FF386108E0FEF7C5
:10343C003FFF02463B69D31A022B01D90323A1E1BA
:10344C002D4B1B6803F00203002BF0D02A4B1B689A
:10345C0023F0F8027B685B69DB00274913430B60A0
:10346C0015E0264B00221A60FEF722FF386108E0B7
:10347C00FEF71EFF02463B69D31A022B01D9032328
:10348C0080E11D4B1B6803F00203002BF0D17B681D
:10349C001B6803F00803002B3AD07B689B69002B58
:1034AC0019D0174B01221A60FEF702FF386108E0B1
:1034BC00FEF7FEFE02463B69D31A022B01D9032309
:1034CC0060E10D4B5B6A03F00203002BF0D001208E
:1034DC0000F0CEFA1CE00A4B00221A60FEF7E8FE60
:1034EC0038610FE0FEF7E4FE02463B69D31A022B6B
:1034FC0008D9032346E100BF0010024000004242FD
:10350C0080044242924B5B6A03F00203002BE9D128
:10351C007B681B6803F00403002B00F0A6800023DB
:10352C00FB758B4BDB6903F08053002B0DD1884B63
:10353C00DB69874A43F08053D361854BDB6903F029
:10354C008053BB60BB680123FB75824B1B6803F483
:10355C008073002B18D17F4B1B687E4A43F4807319
:10356C001360FEF7A5FE386108E0FEF7A1FE0246E7
:10357C003B69D31A642B01D9032303E1754B1B68F8
:10358C0003F48073002BF0D07B68DB68012B06D131
:10359C006F4B1B6A6E4A43F0010313622DE07B688C
:1035AC00DB68002B0CD16A4B1B6A694A23F00103C0
:1035BC001362674B1B6A664A23F0040313621CE018
:1035CC007B68DB68052B0CD1614B1B6A604A43F0AE
:1035DC00040313625E4B1B6A5D4A43F001031362E2
:1035EC000BE05B4B1B6A5A4A23F001031362584BE6
:1035FC001B6A574A23F0040313627B68DB68002BB9
:10360C0015D0FEF755FE38610AE0FEF751FE024672
:10361C003B69D31A41F28832934201D90323B1E0BA
:10362C004B4B1B6A03F00203002BEED014E0FEF7A9
:10363C003FFE38610AE0FEF73BFE02463B69D31AB7
:10364C0041F28832934201D903239BE0404B1B6A21
:10365C0003F00203002BEED1FB7D012B05D13C4B7B
:10366C00DB693B4A23F08053D3617B68DB69002B19
:10367C0000F08780364B5B6803F00C03082B61D09D
:10368C007B68DB69022B46D1334B00221A60FEF7B4
:10369C000FFE386108E0FEF70BFE02463B69D31AB9
:1036AC00022B01D903236DE0294B1B6803F0007337
:1036BC00002BF0D17B681B6AB3F5803F08D1244BFB
:1036CC005B6823F400327B689B68214913434B6091
:1036DC001F4B5B6823F474127B68196A7B685B6A06
:1036EC000B431B4913434B601B4B01221A60FEF723
:1036FC00DFFD386108E0FEF7DBFD02463B69D31ABB
:10370C00022B01D903233DE0114B1B6803F000731E
:10371C00002BF0D035E0104B00221A60FEF7C8FDEC
:10372C00386108E0FEF7C4FD02463B69D31A022B50
:10373C0001D9032326E0064B1B6803F00073002B12
:10374C00F0D11EE07B68DB69012B07D1012319E066
:10375C000010024000700040600042420B4B5B685E
:10376C00FB60FB6803F480327B681B6A9A4206D1CB
:10377C00FB6803F470127B685B6A9A4201D00123E8
:10378C0000E0002318461837BD4680BD00100240EB
:10379C0080B584B000AF786039607B68002B01D1B4
:1037AC000123D0E06A4B1B6803F007033A689A4286
:1037BC0010D9674B1B6823F0070265493B6813431C
:1037CC000B60634B1B6803F007033A689A4201D005
:1037DC000123B8E07B681B6803F00203002B20D0A8
:1037EC007B681B6803F00403002B05D0594B5B6806
:1037FC00584A43F4E06353607B681B6803F008038A
:10380C00002B05D0534B5B68524A43F46053536012
:10381C00504B5B6823F0F0027B689B684D49134367
:10382C004B607B681B6803F00103002B40D07B6866
:10383C005B68012B07D1474B1B6803F40033002B4B
:10384C0015D101237FE07B685B68022B07D1414BCC
:10385C001B6803F00073002B09D1012373E03D4B6F
:10386C001B6803F00203002B01D101236BE0394BE1
:10387C005B6823F003027B685B68364913434B603B
:10388C00FEF716FDF8600AE0FEF712FD0246FB6833
:10389C00D31A41F28832934201D9032353E02D4BC2
:1038AC005B6803F00C027B685B689B009A42EBD16F
:1038BC00274B1B6803F007033A689A4210D2244B3B
:1038CC001B6823F0070222493B6813430B60204B13
:1038DC001B6803F007033A689A4201D0012332E0D7
:1038EC007B681B6803F00403002B08D0194B5B6842
:1038FC0023F4E0627B68DB68164913434B607B68FA
:10390C001B6803F00803002B09D0124B5B6823F4EF
:10391C0060527B681B69DB000E4913434B6000F05F
:10392C0021F802460B4B5B681B0903F00F030A4995
:10393C00CB5C22FA03F3094A1360094B1B68184647
:10394C00FEF774FC002318461037BD4680BD00BF3F
:10395C000020024000100240785C000800000020AB
:10396C001C00002080B487B000AF0023FB60002354
:10397C00BB6000237B6100237B6000233B611E4BFB
:10398C005B68FB60FB6803F00C03042B02D0082B74
:10399C0003D027E0194B3B6127E0FB689B0C03F03D
:1039AC000F03174AD35C7B60FB6803F48033002B56
:1039BC0010D0114B5B685B0C03F00103114AD35C14
:1039CC00BB607B680D4A03FB02F2BB68B2FBF3F3EE
:1039DC007B6104E07B680C4A02FB03F37B617B692F
:1039EC003B6102E0054B3B6100BF3B6918461C374D
:1039FC00BD4680BC704700BF0010024000127A0028
:103A0C005C7400086C74000800093D0080B400AFC1
:103A1C00024B1B681846BD4680BC70470000002056
:103A2C0080B500AFFFF7F2FF0246054B5B681B0A3F
:103A3C0003F007030349CB5C22FA03F3184680BD5D
:103A4C0000100240885C000880B500AFFFF7DEFF75
:103A5C000246054B5B68DB0A03F007030349CB5CAA
:103A6C0022FA03F3184680BD00100240885C00085F
:103A7C0080B485B000AF78600A4B1B680A4AA2FB81
:103A8C0003235B0A7A6802FB03F3FB6000BFFB684D
:103A9C005A1EFA60002BF9D100BF00BF1437BD4687
:103AAC0080BC704700000020D34D621080B586B0FA
:103ABC0000AF786000233B610023FB607B681B68D0
:103ACC0003F00103002B7DD00023FB754F4BDB690A
:103ADC0003F08053002B0DD14C4BDB694B4A43F068
:103AEC008053D361494BDB6903F08053BB60BB68E7
:103AFC000123FB75464B1B6803F48073002B18D114
:103B0C00434B1B68424A43F480731360FEF7D0FBAF
:103B1C00386108E0FEF7CCFB02463B69D31A642BF4
:103B2C0001D903236DE03A4B1B6803F48073002B1F
:103B3C00F0D0364B1B6A03F44073FB60FB68002B20
:103B4C002ED07B685B6803F44073FA689A4227D0E6
:103B5C002E4B1B6A23F44073FB602E4B01221A6020
:103B6C002C4B00221A60294AFB681362FB6803F095
:103B7C000103002B14D0FEF79BFB38610AE0FEF723
:103B8C0097FB02463B69D31A41F28832934201D922
:103B9C00032336E01D4B1B6A03F00203002BEED00F
:103BAC001A4B1B6A23F440727B685B6817491343FA
:103BBC000B62FB7D012B05D1144BDB69134A23F0FF
:103BCC008053D3617B681B6803F00203002B08D081
:103BDC000E4B5B6823F440427B689B680B49134394
:103BEC004B607B681B6803F01003002B08D0074B5D
:103BFC005B6823F480027B68DB68044913434B60E9
:103C0C00002318461837BD4680BD00BF0010024087
:103C1C00007000404004424280B588B000AF78602C
:103C2C0000237B610023FB6100233B610023FB60CD
:103C3C000023BB617B68102B0AD07B68102B00F231
:103C4C008A807B68012B45D07B68022B75D082E083
:103C5C00464B5B68FB60454B1B6803F08073002B85
:103C6C007BD0FB689B0C03F00F03414AD35C3B6198
:103C7C00FB6803F48033002B15D03C4B5B685B0C6A
:103C8C0003F001033B4AD35C7B61FB6803F4803394
:103C9C00002B0DD0384A7B69B2FBF3F23B6902FB77
:103CAC0003F3FB6104E03B69344A02FB03F3FB6161
:103CBC002E4B5B6803F48003B3F5800F02D1FB69D4
:103CCC00BB614AE0FB695B002D4AA2FB03235B0846
:103CDC00BB6142E0254B1B6AFB60FB6803F440733D
:103CEC00B3F5807F08D1FB6803F00203002B03D0EF
:103CFC004FF40043BB611FE0FB6803F44073B3F562
:103D0C00007F09D1194B5B6A03F00203002B03D02F
:103D1C0049F64043BB610FE0FB6803F44073B3F515
:103D2C00407F1CD1114B1B6803F40033002B16D0C1
:103D3C004FF22443BB6112E011E0FFF785FE02460F
:103D4C000A4B5B689B0B03F0030301335B00B2FB74
:103D5C00F3F3BB6104E000BF02E000BF00E000BF72
:103D6C00BB6918462037BD4680BD00BF001002401D
:103D7C00707400088074000800127A0000093D007D
:103D8C00ABAAAAAA80B582B000AF78607B68002B82
:103D9C0001D1012341E07B6893F83D30DBB2002B6D
:103DAC0006D17B68002283F83C207868FCF7A6FFDC
:103DBC007B68022283F83D207B681A687B68043399
:103DCC001946104600F056FA7B68012283F846200B
:103DDC007B68012283F83E207B68012283F83F2018
:103DEC007B68012283F840207B68012283F8412004
:103DFC007B68012283F842207B68012283F84320F0
:103E0C007B68012283F844207B68012283F84520DB
:103E1C007B68012283F83D20002318460837BD46F5
:103E2C0080BD000080B485B000AF78607B6893F8EB
:103E3C003D30DBB2012B01D0012335E07B6802223F
:103E4C0083F83D207B681B68DA687B681B6842F04E
:103E5C000102DA607B681B68164A934209D07B68C2
:103E6C001B68B3F1804F04D07B681B68124A9342E5
:103E7C0011D17B681B689B6803F00703FB60FB6830
:103E8C00062B10D07B681B681A687B681B6842F095
:103E9C0001021A6007E07B681B681A687B681B6864
:103EAC0042F001021A60002318461437BD4680BC4C
:103EBC00704700BF002C01400004004080B584B066
:103ECC0000AF78607B681B68DB68FB607B681B68F5
:103EDC001B69BB60BB6803F00203002B20D0FB689E
:103EEC0003F00203002B1BD07B681B686FF00202EF
:103EFC001A617B6801221A777B681B689B6903F047
:103F0C000303002B03D0786800F098F905E078687B
:103F1C0000F08BF9786800F09AF97B6800221A7728
:103F2C00BB6803F00403002B20D0FB6803F00403F0
:103F3C00002B1BD07B681B686FF004021A617B6836
:103F4C0002221A777B681B689B6903F44073002B71
:103F5C0003D0786800F072F905E0786800F065F934
:103F6C00786800F074F97B6800221A77BB6803F05C
:103F7C000803002B20D0FB6803F00803002B1BD098
:103F8C007B681B686FF008021A617B6804221A7741
:103F9C007B681B68DB6903F00303002B03D0786894
:103FAC0000F04CF905E0786800F03FF9786800F013
:103FBC004EF97B6800221A77BB6803F01003002BC4
:103FCC0020D0FB6803F01003002B1BD07B681B6810
:103FDC006FF010021A617B6808221A777B681B68E5
:103FEC00DB6903F44073002B03D0786800F026F9EA
:103FFC0005E0786800F019F9786800F028F97B681A
:10400C0000221A77BB6803F00103002B0CD0FB686D
:10401C0003F00103002B07D07B681B686FF00102D3
:10402C001A617868FCF7F4FCBB6803F08003002B82
:10403C000CD0FB6803F08003002B07D07B681B6857
:10404C006FF080021A61786800F06FFABB6803F0B9
:10405C004003002B0CD0FB6803F04003002B07D06F
:10406C007B681B686FF040021A61786800F0F8F802
:10407C00BB6803F02003002B0CD0FB6803F020037B
:10408C00002B07D07B681B686FF020021A617868E0
:10409C0000F042FA00BF1037BD4680BD80B584B039
:1040AC0000AF786039600023FB737B6893F83C3079
:1040BC00012B01D10223B4E07B68012283F83C2060
:1040CC007B68022283F83D207B681B689B68BB6081
:1040DC00BB6823F07703BB60BB6823F47F43BB60F2
:1040EC007B681B68BA689A603B681B68B3F5005F15
:1040FC003ED0B3F5005F00F28780B3F5805F00F02F
:10410C008680B3F5805F7FD8702B1AD0702B7BD84C
:10411C00602B50D0602B77D8502B3CD0502B73D8C1
:10412C00402B58D0402B6FD8302B64D0302B6BD811
:10413C00202B60D0202B67D8002B5CD0102B5AD0B2
:10414C0062E07B6818683B6899683B685A683B6812
:10415C00DB6800F06AF97B681B689B68BB60BB6816
:10416C0043F07703BB607B681B68BA689A604FE0CA
:10417C007B6818683B6899683B685A683B68DB68E1
:10418C0000F053F97B681B689A687B681B6842F4E3
:10419C0080429A603CE07B6818683B6859683B68D1
:1041AC00DB681A4600F0CAF87B681B685021184679
:1041BC0000F021F92CE07B6818683B6859683B6873
:1041CC00DB681A4600F0E8F87B681B68602118462B
:1041DC0000F011F91CE07B6818683B6859683B6873
:1041EC00DB681A4600F0AAF87B681B684021184669
:1041FC0000F001F90CE07B681A683B681B681946F3
:10420C00104600F0F8F803E00123FB7300E000BF58
:10421C007B68012283F83D207B68002283F83C20D8
:10422C00FB7B18461037BD4680BD80B483B000AF11
:10423C00786000BF0C37BD4680BC704780B483B03B
:10424C0000AF786000BF0C37BD4680BC704780B4AF
:10425C0083B000AF786000BF0C37BD4680BC7047A0
:10426C0080B483B000AF786000BF0C37BD4680BC13
:10427C007047000080B485B000AF786039607B680F
:10428C001B68FB607B682B4A934207D07B68B3F1B9
:10429C00804F03D07B68284A934208D1FB6823F0F7
:1042AC007003FB603B685B68FA681343FB607B68D8
:1042BC00204A934207D07B68B3F1804F03D07B68D0
:1042CC001D4A934208D1FB6823F44073FB603B68A2
:1042DC00DB68FA681343FB60FB6823F080023B68E1
:1042EC005B691343FB607B68FA681A603B689A68E9
:1042FC007B68DA623B681A687B689A627B680D4A55
:10430C00934203D13B681A697B681A637B6801226C
:10431C005A617B681B6903F00103002B05D07B6895
:10432C001B6923F001027B681A6100BF1437BD467C
:10433C0080BC7047002C01400004004080B487B062
:10434C0000AFF860B9607A60FB681B6A7B61FB6840
:10435C001B6A23F00102FB681A62FB689B693B61D4
:10436C003B6923F0F0033B617B681B013A69134303
:10437C003B617B6923F00A037B617A69BB68134359
:10438C007B61FB683A699A61FB687A691A6200BFC3
:10439C001C37BD4680BC704780B487B000AFF86056
:1043AC00B9607A60FB681B6A7B61FB681B6A23F04F
:1043BC001002FB681A62FB689B693B613B6923F442
:1043CC0070433B617B681B033A6913433B617B6918
:1043DC0023F0A0037B61BB681B017A6913437B61EB
:1043EC00FB683A699A61FB687A691A6200BF1C37EC
:1043FC00BD4680BC704780B485B000AF7860396032
:10440C007B689B68FB60FB6823F07003FB603A6879
:10441C00FB68134343F00703FB607B68FA689A6000
:10442C0000BF1437BD4680BC704780B487B000AF66
:10443C00F860B9607A603B60FB689B687B617B6964
:10444C0023F47F437B613B681A027B681A43BB6889
:10445C0013437A6913437B61FB687A699A6000BFE6
:10446C001C37BD4680BC704780B485B000AF786007
:10447C0039607B6893F83C30012B01D1022341E079
:10448C007B68012283F83C207B68022283F83D2064
:10449C007B681B685B68FB607B681B689B68BB6008
:1044AC00FB6823F07003FB603B681B68FA681343DE
:1044BC00FB607B681B68FA685A607B681B68144A4F
:1044CC00934209D07B681B68B3F1804F04D07B68A2
:1044DC001B68104A93420CD1BB6823F08003BB606D
:1044EC003B685B68BA681343BB607B681B68BA683F
:1044FC009A607B68012283F83D207B68002283F858
:10450C003C20002318461437BD4680BC704700BFC2
:10451C00002C01400004004080B483B000AF7860F0
:10452C0000BF0C37BD4680BC704780B483B000AF71
:10453C00786000BF0C37BD4680BC704780B582B038
:10454C0000AF78607B68002B01D1012342E07B68CF
:10455C0093F84130DBB2002B06D17B68002283F844
:10456C0040207868FCF718FC7B68242283F84120F3
:10457C007B681B68DA687B681B6822F40052DA607F
:10458C00786800F071F97B681B681A697B681B6896
:10459C0022F490421A617B681B685A697B681B681D
:1045AC0022F02A025A617B681B68DA687B681B68F8
:1045BC0042F40052DA607B6800225A647B68202245
:1045CC0083F841207B68202283F842207B680022FC
:1045DC005A63002318460837BD4680BD80B58AB0A3
:1045EC0002AFF860B9603B601346FB8000237B612F
:1045FC00FB6893F84130DBB2202B75D1BB68002BE4
:10460C0002D0FB88002B01D101236EE0FB68002255
:10461C005A64FB68212283F84120FDF749FE78613A
:10462C00FB68FA889A84FB68FA88DA84FB689B68D2
:10463C00B3F5805F08D1FB681B69002B04D1002304
:10464C00FB61BB68BB6103E0BB68FB610023BB6122
:10465C002EE03B6800937B6900228021F86800F013
:10466C0048F80346002B05D0FB68202283F8412034
:10467C0003233AE0FB69002B0BD1BB691B881A465C
:10468C00FB681B68C2F308025A60BB690233BB614A
:10469C0007E0FB691A78FB681B685A60FB690133F9
:1046AC00FB61FB68DB8C9BB2013B9AB2FB68DA8442
:1046BC00FB68DB8C9BB2002BCBD13B6800937B69F6
:1046CC0000224021F86800F014F80346002B05D0B6
:1046DC00FB68202283F84120032306E0FB6820229C
:1046EC0083F84120002300E0022318462037BD4602
:1046FC0080BD80B586B000AFF860B9603B601346F2
:10470C00FB713BE03B6AB3F1FF3F37D0FDF7D0FDC7
:10471C0002463B68D31A3A6A9A4202D33B6A002B90
:10472C0001D103233AE0FB681B68DB6803F0040348
:10473C00002B23D0BB68802B20D0BB68402B1DD016
:10474C00FB681B681B6803F00803082B16D10023B9
:10475C007B61FB681B681B687B61FB681B685B6883
:10476C007B617B69F86800F01DF8FB6808225A64CD
:10477C00FB68002283F8402001230FE0FB681B68D4
:10478C001A68BB681340BA689A420CBF0123002315
:10479C00DBB21A46FB799A42B4D00023184618377C
:1047AC00BD4680BD80B495B000AF78607B681B6857
:1047BC000C337B637B6B53E8003F3B633B6B23F415
:1047CC009073FB647B681B680C33FA6C3A64FB6374
:1047DC00F96B3A6C41E80023BB63BB6B002BE5D152
:1047EC007B681B6814333B623B6A53E8003FFB61F8
:1047FC00FB6923F00103BB647B681B681433BA6C40
:10480C00FA62BB62B96AFA6A41E800237B627B6A8E
:10481C00002BE5D17B681B6B012B19D17B681B68C6
:10482C000C33FB60FB6853E8003FBB60BB6823F0B4
:10483C0010037B647B681B680C337A6CBA617B61F8
:10484C007969BA6941E800233B613B69002BE5D1EA
:10485C007B68202283F842207B6800221A6300BF09
:10486C005437BD4680BC704780B584B000AF7860CB
:10487C007B681B681B6923F440517B68DA687B6892
:10488C001B680A431A617B689A687B681B691A4328
:10489C007B685B691343BB607B681B68DB6823F434
:1048AC00B05323F00C037A681268B9680B43D360D9
:1048BC007B681B685B6923F440717B689A697B6831
:1048CC001B680A435A617B681B682C4A934203D1CC
:1048DC00FFF7BAF8F86002E0FFF7A2F8F860FA68A0
:1048EC0013469B0013449A001A447B685B689B0038
:1048FC00B2FBF3F3224AA2FB03235B091901FA680A
:10490C0013469B0013449A001A447B685B689B0017
:10491C00B2FBF3F21A4BA3FB02035B09642000FB0E
:10492C0003F3D31A1B013233154AA2FB03235B0991
:10493C0003F0F0031944FA6813469B0013449A00E1
:10494C001A447B685B689B00B2FBF3F20C4BA3FB35
:10495C0002035B09642000FB03F3D31A1B013233FF
:10496C00074AA2FB03235B0903F00F027B681B6859
:10497C000A449A6000BF1037BD4680BD0038014024
:10498C001F85EB51002310B50446C0E90033C0E984
:10499C000433836081814366C28183611946082296
:1049AC005C3000F03AF90D4B246263620C4BA3624D
:1049BC000C4BE3620C4B23630C4B9C4206D003F173
:1049CC006802944202D0D0339C4205D104F15800C5
:1049DC00BDE8104000F09AB910BD00BFA14B000813
:1049EC00C34B0008FB4B00081F4C0008740500204B
:1049FC00024A0349034800F069B800BF24000020B4
:104A0C00615800083400002041680C4B10B59942E5
:104A1C00044601D000F01EFFA168094B994202D058
:104A2C00204600F017FFE168064B994204D020465F
:104A3C00BDE8104000F00EBF10BD00BF7405002093
:104A4C00DC0500204406002010B50B4B0B4C0C4A27
:104A5C0020461A6004210022FFF794FF04F168003D
:104A6C0001220921FFF78EFF04F1D0000222BDE8DC
:104A7C0010401221FFF786BFAC0600207405002001
:104A8C00FD490008014800F042B900BFB5060020FE
:104A9C00014800F03DB900BFB506002010B5044632
:104AAC00FFF7F0FF236A1BB1BDE81040FFF7F0BF22
:104ABC00044B2362044B1B68002BF5D1FFF7C4FF9A
:104ACC00F2E700BF154A0008AC0600202DE9F843B8
:104ADC000746884614460026D4E90195B9F1010928
:104AEC0005D52468002CF7D13046BDE8F883AB8996
:104AFC00012B07D9B5F90E30013303D029463846BE
:104B0C00C04706436835E9E70FB407B5064904AB5F
:104B1C00086853F8042B8168019300F071FB03B013
:104B2C005DF804EB04B07047300000200CB430B5D5
:104B3C00174B0C1E1D689DB008DA8B234FF0FF300D
:104B4C002B601DB0BDE8304002B070474FF40273CB
:104B5C00ADF814300CBF234604F1FF3304930793D4
:104B6C004FF6FF7302900690ADF81630284621AB35
:104B7C00209A02A9019300F01FFA431CBCBF8B239F
:104B8C002B60002CDDD00022029B1A70D9E700BFED
:104B9C003000002010B50C46B1F90E1000F068F88A
:104BAC000028ABBF636DA3891B1823F48053ACBFE3
:104BBC006365A38110BD2DE9F0411F468B89054625
:104BCC00DB050C46164605D502230022B1F90E1062
:104BDC0000F03CF8A389324623F48053A381284685
:104BEC003B46B4F90E10BDE8F04100F053B810B5D7
:104BFC000C46B1F90E1000F029F8431CA38915BF1F
:104C0C00606523F4805343F48053A38118BFA381C0
:104C1C0010BDB1F90E1000F009B8034602449342DE
:104C2C0000D1704703F8011BF9E7000038B50023E9
:104C3C00054D044608462B60FBF7A5FF431C02D12B
:104C4C002B6803B1236038BDB006002038B504468C
:104C5C00084611460022054D2A601A46FBF7B7FF9D
:104C6C00431C02D12B6803B1236038BDB006002071
:104C7C0038B50446084611460022054D2A601A46EE
:104C8C00FBF748FF431C02D12B6803B1236038BDEE
:104C9C00B006002038B50446084611460022054DE2
:104CAC002A601A46FBF753FF431C02D12B6803B151
:104CBC00236038BDB0060020014B1868704700BF58
:104CCC003000002070B500260C4D0D4C641BA41058
:104CDC00A64209D100F07AFF00260A4D0A4C641B4B
:104CEC00A410A64205D170BD55F8043B9847013677
:104CFC00EEE755F8043B98470136F2E7B874000824
:104D0C00B8740008B8740008BC7400087047704789
:104D1C007047000038B50546002940D051F8043CD6
:104D2C000C1F002BB8BFE41800F0DEF81C4A136807
:104D3C0033B9636014602846BDE8384000F0DAB837
:104D4C00A34208D9206821188B4201BF19685B68FF
:104D5C0009182160EDE71A465B680BB1A342FAD93A
:104D6C0011685018A0420BD120680144501883429E
:104D7C001160E0D118685B68084410605360DAE792
:104D8C0002D90C232B60D6E7206821188B4201BF77
:104D9C0019685B680918216063605460CBE738BD03
:104DAC00BC06002070B50F4E0C463168054611B993
:104DBC0000F026FE30602146284600F021FE431C00
:104DCC0003D14FF0FF34204670BDC41C24F0030403
:104DDC00A042F8D0211A284600F012FE0130F2D180
:104DEC00EFE700BFB80600202DE9F843CD1C25F0F5
:104DFC00030508350C2D38BF0C25002D064601DBAC
:104E0C00A94204D90C2333600020BDE8F883DFF8F5
:104E1C00D48000F069F8D8F800301C4644BB294611
:104E2C003046FFF7BFFF431C044658D1D8F800406A
:104E3C002746002F43D1002C4BD0236839463046EF
:104E4C0004EB030900F0DCFD814542D121683046BA
:104E5C006D1A2946FFF7A6FF01303AD023682B4480
:104E6C002360D8F800305A6862BBC8F800700FE0B5
:104E7C002268521B20D40B2A17D96119A342256032
:104E8C0018BF5960636808BFC8F8001062514B60C6
:104E9C00304600F02FF804F10B00231D20F0070022
:104EAC00C21A1CBF1B1AA350AFE76268A3420CBF07
:104EBC00C8F800205A60EBE723466468AEE73C462E
:104ECC007F68B6E71A465B68A342FBD100235360A8
:104EDC00DEE70C233046336000F00CF894E70560F5
:104EEC00D6E700BFBC0600200148FFF710BF00BF8B
:104EFC00B40600200148FFF70BBF00BFB40600202A
:104F0C002DE9F0471F468E688246BE420C469046FD
:104F1C000B682DD8B1F90C2012F4906F26D065696E
:104F2C00096905EB4505A3EB010905EBD5757B1C60
:104F3C004B446D109D4238BF1D46530527D529465D
:104F4C00FFF752FF064660B34A46216900F076FD32
:104F5C00A38923F4906343F08003A38126614E441C
:104F6C0026603E466561A5EB0905A560BE4200D9E9
:104F7C003E4632464146206800F028FD0020A368DA
:104F8C009B1BA360236833442360BDE8F0872A464B
:104F9C0000F062FD06460028E0D150462169FFF77B
:104FAC00B9FE0C23CAF80030A3894FF0FF3043F050
:104FBC004003A381E9E700002DE9F04F98468B8967
:104FCC0007461B060D4614469DB010D50B6973B9E8
:104FDC004021FFF709FF2860286130B90C233B60A2
:104FEC004FF0FF301DB0BDE8F08F40236B61002304
:104FFC00099320238DF8293030234FF00109CDF887
:10500C000C80DFF898818DF82A3023469A4613F8E5
:10501C00012B0AB1252AF9D1BAEB040B0BD05B4654
:10502C00224629463846FFF76BFF013000F0A78077
:10503C00099A5A4409929AF80030002B00F09F808C
:10504C0000234FF0FF32CDE905230AF1010A049346
:10505C0007938DF853301A935446052214F8011B0C
:10506C004E4800F0DDFC049AD8B9D00644BF20238A
:10507C008DF85330110744BF2B238DF853309AF819
:10508C0000302A2B15D0544600204FF00A0C079AFA
:10509C00214611F8013B303B092B4BD9B0B107929B
:1050AC0014E0A0EB080309FA03F31343A24604939C
:1050BC00D2E7039B191D1B680391002BBBBF5B42FE
:1050CC0042F0020207930793B8BF049223782E2B69
:1050DC000AD163782A2B32D1039B02341A1D1B6828
:1050EC00039243EAE3730593DFF8B4A0032250461E
:1050FC00217800F095FC38B14022049BA0EB0A000B
:10510C00824013430134049314F8011B06222548F2
:10511C008DF8281000F084FC002836D0224B1BBBE5
:10512C00039B073323F0070308330393099B334492
:10513C0009936AE70C4601200CFB0232A8E7002316
:10514C004FF00A0C194601340593204610F8012B38
:10515C00303A092A03D9002BC6D00591C4E704467E
:10516C0001230CFB0121F0E703AB00932A463846E0
:10517C000E4B04A9AFF30080421C0646D6D1AB8976
:10518C005B063FF52DAF09982CE703AB00932A463D
:10519C003846064B04A900F0BDF9EDE7827400080F
:1051AC00887400088C740008000000000D4F000883
:1051BC00936810B4013B002B936007DA9469A34207
:1051CC0001DB0A2902D110BC00F06CBB1368581C1F
:1051DC0010601970084610BC7047F8B506460F46AB
:1051EC001446D518AC4201D1002007E03A463046AF
:1051FC0014F8011BFFF7DCFF431CF3D1F8BD0000D2
:10520C002DE9F04F0D461446984606469DB018B150
:10521C00036A0BB9FFF742FC6B6ED90705D4AB8957
:10522C009A0502D4A86DFFF772FDAB891B0701D557
:10523C002B699BB92946304600F072FB70B16B6E3E
:10524C00DC0704D54FF0FF301DB0BDE8F08FAB8903
:10525C009805F7D4A86DFFF75BFDF3E700230993DE
:10526C0020238DF8293030234FF00109CDF80C8024
:10527C00DFF8A8818DF82A3023469A4613F8012BC3
:10528C000AB1252AF9D1BAEB040B0BD05B462246A6
:10529C0029463046FFF7A1FF013000F0A780099A9C
:1052AC005A4409929AF80030002B00F09F8000239A
:1052BC004FF0FF32CDE905230AF1010A049307935D
:1052CC008DF853301A935446052214F8011B534899
:1052DC0000F0A6FB049AD8B9D10644BF20238DF860
:1052EC005330130744BF2B238DF853309AF80030FA
:1052FC002A2B15D0544600204FF00A0C079A214651
:10530C0011F8013B303B092B4BD9B0B1079214E09B
:10531C00A0EB080309FA03F31343A2460493D2E764
:10532C00039B191D1B680391002BBBBF5B4242F012
:10533C00020207930793B8BF049223782E2B0AD14D
:10534C0063782A2B32D1039B02341A1D1B680392FB
:10535C0043EAE3730593DFF8C8A003225046217893
:10536C0000F05EFB38B14022049BA0EB0A008240A7
:10537C0013430134049314F8011B062229488DF8B9
:10538C00281000F04DFB00283FD0274B1BBB039B84
:10539C00073323F0070308330393099B3B4409931A
:1053AC006AE70C4601200CFB0232A8E700234FF001
:1053BC000A0C194601340593204610F8012B303A9B
:1053CC00092A03D9002BC6D00591C4E70446012352
:1053DC000CFB0121F0E703AB00932A463046134B3C
:1053EC0004A9AFF300800746781CD6D16B6ED907A1
:1053FC0005D4AB899A0502D4A86DFFF789FCAB895B
:10540C005B063FF51FAF09981EE703AB00932A46D6
:10541C003046064B04A900F07DF8E4E782740008DE
:10542C00887400088C74000800000000E751000824
:10543C002DE9F047164698468A680B690746934251
:10544C00B8BF1346336091F843200C46DDF820902A
:10545C000AB1013333602368990642BF33680233C3
:10546C003360256815F0060506D104F1190AE368C6
:10547C0032689B1AAB422BDC94F843302268003B19
:10548C0018BF0123920630D44146384604F143023A
:10549C00C847013023D02368226903F00603042B8C
:1054AC0014BF002533684FF0000608BFE56804F10F
:1054BC001A0408BFED1A54F8123C08BF25EAE5752A
:1054CC009342C4BF9B1AED18B5421AD1002008E0D4
:1054DC000123524641463846C847013003D14FF0AC
:1054EC00FF30BDE8F0870135C1E73020E11881F8C5
:1054FC0043005A1C94F845102244023382F843109E
:10550C00C2E70123224641463846C8470130E6D05F
:10551C000136D9E72DE9FF470F7E9146782F80465B
:10552C000C469A460C9E01F1430207D8622F0AD80A
:10553C00002F00F0D380582F00F0BA8004F14206FF
:10554C0084F842703AE0A7F16303152BF6D801A159
:10555C0051F823F0B9550008CD55000849550008FD
:10556C00495500084955000849550008CD55000813
:10557C004955000849550008495500084955000887
:10558C00CF560008F7550008895600084955000801
:10559C0049550008F156000849550008F755000810
:1055AC0049550008495500089156000833681A1DE2
:1055BC001B68326004F1420684F8423001239EE0FD
:1055CC0033682068191D3160060601D51D6803E09B
:1055DC004506FBD5B3F90050002D03DA2D236D429F
:1055EC0084F843300A23594811E0216833680806CF
:1055FC0053F8045B02D4490648BFADB26F2F336039
:10560C0014BF0A2308235148002184F8431066680C
:10561C00002EA8BF2168A660A4BF21F00401216060
:10562C000DB9002E4BD01646B5FBF3F103FB115709
:10563C00C75D06F8017D2F46BB420D46F4D9082BF9
:10564C000BD12368DF0708D5236961689942DEBF57
:10565C00302306F8013C06F1FF36921B22614B46C3
:10566C0021464046CDF800A003AAFFF7E1FE013029
:10567C004AD14FF0FF3004B0BDE8F087236843F007
:10568C00200323607827324884F8457023683168FA
:10569C001F0651F8045B02D45F0648BFADB23160FF
:1056AC00D90744BF43F0200323601DB11023ABE79F
:1056BC002648E9E7236823F020032360F6E7164623
:1056CC00BDE733682568181D616930602E061B68BC
:1056DC0001D5196002E06806FBD519800023164637
:1056EC002361BCE7336800211A1D32601E686268B2
:1056FC00304600F095F908B1801B60606368236147
:10570C00002384F84330AAE73246494640462369D1
:10571C00D0470130ADD023689B0713D4E068039BBE
:10572C009842B8BF1846A6E7012332464946404680
:10573C00D04701309DD00135E36803995B1AAB4229
:10574C00F2DCEBE7002504F11906F5E79374000889
:10575C00A4740008B1F90C20F8B5160705460C46E0
:10576C0054D44B68002B02DC0B6C002B48DDE66A32
:10577C00002E45D0002312F480522F68216A2B6032
:10578C0030D0626DA389590705D56368D21A636B53
:10579C000BB1236CD21A00232846E66A216AB04763
:1057AC00431CA38906D129681D292BD8284A0A41F4
:1057BC00D60727D4002262602269D904226004D55E
:1057CC00421C01D12B6803B96065616B2F60B9B1C4
:1057DC0004F14403994202D02846FFF79BFA0023B8
:1057EC0063630DE001232846B0470246501CC9D123
:1057FC002B68002BC6D01D2B01D0162B1DD12F6072
:10580C00002021E043F040031BB21AE00F69002F87
:10581C00F6D0930718BF00230E6808BF4B69F61B20
:10582C000F608B60002EEBDD33463A462846216A2A
:10583C00D4F828C0E047002807DCB4F90C3043F05A
:10584C0040034FF0FF30A381F8BD0744361AE9E757
:10585C00FEFFBFDF38B50B6905460C4613B90025B2
:10586C00284638BD18B1036A0BB9FFF717F9B4F91C
:10587C000C30002BF3D0626ED00704D4990502D4FF
:10588C00A06DFFF744FA28462146FFF763FF636ECD
:10589C000546DA07E4D4A3899B05E1D4A06DFFF794
:1058AC0037FADDE7F8B50E461446054618B1036A1B
:1058BC000BB9FFF7F3F8A369A360A3891A0701D505
:1058CC00236943B92146284600F02AF818B14FF055
:1058DC00FF373846F8BD23682269F6B2981A636917
:1058EC003746834205DC21462846FFF7B3FF0028E4
:1058FC00EDD1A368013BA36023685A1C22601E7083
:10590C006269431C9A4204D0A389DB07E1D50A2EB5
:10591C00DFD121462846FFF79DFF0028D9D0D6E7D6
:10592C0038B5294B054618680C4618B1036A0BB9F3
:10593C00FFF7B4F8B4F90C30190722D4DA0607D4FF
:10594C0009222A6043F040034FF0FF30A38133E07B
:10595C00580712D5616B41B104F14403994202D04E
:10596C002846FFF7D7F900236363A38923F02403A8
:10597C00A3810023636023692360A38943F0080398
:10598C00A38123694BB9A38903F42073B3F5007F7A
:10599C0003D02146284600F0B2F8B4F90C3013F0CD
:1059AC0001020AD00022A26062695242A2612269FD
:1059BC0042B913F08000C5D138BD990758BF626950
:1059CC00A260F4E70020F7E730000020884210B511
:1059DC0001EB020402D98442234607D8431EA1429C
:1059EC0008D011F8012B03F8012FF8E70146024407
:1059FC008A4200D110BD13F8014D02F8014DF7E7B2
:105A0C0038B50023054D044608462B60FBF7ECF82F
:105A1C00431C02D12B6803B1236038BDB0060020B3
:105A2C00034610B5C9B202449342184601D1002076
:105A3C0003E0047801338C42F6D110BD0A44914244
:105A4C0000F1FF3300D1704710B511F8014B9142B2
:105A5C0003F8014FF9D110BD2DE9F04180461546F0
:105A6C000C4621B91146BDE8F041FFF7BDB92AB982
:105A7C00FFF750F900242046BDE8F08100F09EF8B5
:105A8C008542064602D8B5EB500FF4D8294640465D
:105A9C00FFF7AAF907460028ECD0B5422A46214662
:105AAC0028BF3246FFF7CAFF21464046FFF732F9BE
:105ABC003C46E0E770B50C46B1F90E1015460029CE
:105ACC001E4696B00CDAA389002113F0800F14BF88
